:020000040000FA
:040000001BEF00F002
:100008005F829EA012D09E903C0ECF6EAF0ECE6E39
:10001800010E00016427000E652366236723010E85
:100028006027000E6123622363235F921100C1EFF2
:0200380006F0D0
:100300000053656E736F72206661696C656420735B
:10031000656C6620746573740D0A0053656E736FA7
:1003200072207061737365642073656C66207465F8
:1003300073740D0A00583A256420593A2564205AEE
:100340003A256420533A25640D0A00001DC035F09B
:100350001EC036F01FC037F020C038F021C039F081
:1003600022C03AF023C03BF024C03CF03CAE02D0A7
:10037000010E01D0000E336E346A33503410D8B4FD
:1003800010D03C1E3B1E3A1E391E381E371E361E2C
:10039000356C000E36223722382239223A223B228F
:1003A0003C226DAF5C926DBF05D06D5108E16C05CC
:1003B000D8B005D0000E306E010E2F6E04D06CC088
:1003C0002FF06DC030F06AC031F06BC032F03350A6
:1003D0003410D8A402D05CA403D03106D8A03206D1
:1003E000000E3E6E1F0E3D6E000E8E6F7AD03D06E3
:1003F000D8A03E063D506F0FD96EDA6A35C001F0C5
:1004000036C002F037C003F038C004F039C005F040
:100410003AC006F03BC007F03CC008F00A0E096E77
:10042000000E0A6E000E0B6E000E0C6E000E0D6EAE
:10043000000E0E6E000E0F6E000E106EFEEC03F03E
:1004400001C025F002C026F003C027F004C028F048
:1004500005C029F006C02AF007C02BF008C02CF018
:1004600025C013F027C014F094EC06F01350300FA1
:10047000DF6E2F06D8A030063106D8A0320635C070
:1004800001F036C002F037C003F038C004F039C0C4
:1004900005F03AC006F03BC007F03CC008F00A0E79
:1004A000096E000E0A6E000E0B6E000E0C6E000E32
:1004B0000D6E000E0E6E000E0F6E000E106EBFEC75
:1004C00002F001C035F002C036F003C037F004C0BE
:1004D00038F005C039F006C03AF007C03BF008C05C
:1004E0003CF03EBE1FD03E5003E13D04D8A01AD0E0
:1004F000355036103710381039103A103B103C1078
:10050000D8A475D730BE05D0305002E12F04D8B042
:100510006ED732BE07D0325003E13104D8A002D0EA
:100520005CB265D733503410D8A402D05CA415D087
:100530003D06D8A03E0633503410D8A404D0000E97
:100540002E6E2B0E03D0000E2E6E2D0E2D6E3D50F6
:100550006F0FD96EDA6A2DC0DFFF1BC011F01CC00F
:1005600012F03D506F0F136E31C014F032C015F011
:10057000C2EC05F011C01BF012C01CF01200000EFE
:10058000126E10AE12D0101E0F1E0E1E0D1E0C1E6F
:100590000B1E0A1E096C000E0A220B220C220D22D1
:1005A0000E220F221022010E126E08AE12D0081E6B
:1005B000071E061E051E041E031E021E016C000EF1
:1005C0000222032204220522062207220822010E0B
:1005D000121A20EE13F0070EDE6AE806FDE209505B
:1005E0000A100B100C100D100E100F101010D8B4B4
:1005F00046D0010E116E0AD0D89009360A360B3655
:100600000C360D360E360F361036112A10AEF4D7D2
:10061000D89013361436153616361736183619365E
:100620001A360950015C0A5002580B5003580C50FE
:1006300004580D5005580E5006580F5007581050CA
:100640000858D8A011D00950015E0A50025A0B5028
:10065000035A0C50045A0D50055A0E50065A0F50AA
:10066000075A1050085A1380D89010320F320E32A9
:100670000D320C320B320A320932112EC9D7125008
:10068000D8B410D01A1E191E181E171E161E151EBD
:10069000141E136C000E1422152216221722182283
:1006A00019221A2213C001F014C002F015C003F081
:1006B00016C004F017C005F018C006F019C007F006
:1006C0001AC008F012004150D96EDA6ADFCFF6FF87
:1006D0000800F550250AD8A47DD04150D96EDA6AB9
:1006E000DF2A000E00016B6F000E6A6F6AC05CF0BB
:1006F0006BC05DF06C696D694150D96EDA6ADFCF0D
:10070000F6FF0800F550640AD8B40AD04150D96EFB
:10071000DA6ADFCFF6FF0800F550690AD8A434D0B2
:100720004150D96EDA6ADF2A4250D96EDA6ADF5058
:10073000DF2ADF2AD96EDA6ADECF43F0DDCF44F05C
:10074000000E44BEFF0E456E466E476E486E496E03
:100750004A6E3FC01BF040C01CF043C01DF044C0B7
:100760001EF045C01FF046C020F047C021F048C031
:1007700022F049C023F04AC024F0A6EC01F01BC0CF
:100780003FF01CC040F012004150D96EDA6ADFCF52
:10079000F6FF0800F550250AD8A413D04150D96EB1
:1007A000DA6ADF2A000E036E250E026E3FC004F0E7
:1007B00040C005F007EC06F0000E406E010E3F6EE3
:1007C00012004150D96EDA6ADF2A000E406E000E28
:1007D0003F6E12004150D96EDA6ADFCFF6FF080093
:1007E000F550026E036A3FC004F040C005F007EC0C
:1007F00006F04150D96EDA6ADF2ADED7000E126E9B
:1008000008AE12D0081E071E061E051E041E031E7B
:10081000021E016C000E022203220422052206227F
:1008200007220822010E126E10AE10D0101E0F1EED
:100830000E1E0D1E0C1E0B1E0A1E096C000E0A2237
:100840000B220C220D220E220F22102209500A1018
:100850000B100C100D100E100F101010D8B43CD04F
:10086000010E116E0AD0D89009360A360B360C36B6
:100870000D360E360F361036112A10AEF4D7095049
:10088000015C0A5002580B5003580C5004580D508C
:1008900005580E5006580F50075810500858D8A049
:1008A00010D00950015E0A50025A0B50035A0C50E6
:1008B000045A0D50055A0E50065A0F50075A105040
:1008C000085AD89010320F320E320D320C320B32E1
:1008D0000A320932112ED3D71250D8B410D0081EC4
:1008E000071E061E051E041E031E021E016C000EBE
:1008F000022203220422052206220722082201C026
:1009000001F002C002F003C003F004C004F005C00F
:1009100005F006C006F007C007F008C008F0120096
:10092000700ED36E040ED26E000E9B6E000E946E8F
:10093000000E7E6E000E7F6ECD80CD9CCD96CD924A
:10094000CD50CF0B2009CD6E9D808280C00EF26EFF
:1009500002EC07F07AEC06F0FBEC04F000016E6F9D
:100960006E51D8B405D01B0E506EF5EC06F004D0D5
:10097000010E506EF5EC06F067516611651104E149
:10098000050E645DD8A021D082868F0E026E65ECC4
:1009900005F0350E506E8FC051F090C052F091C0EE
:1009A00053F092C054F093C055F094C056F06EC00E
:1009B00057F0586AF5EC06F08296000E646F000E50
:1009C000656F000E666F000E676F6351621106E17E
:1009D000B00E605D040E6159D8A0CED7FBEC04F0D8
:1009E00000016E6F000E606F000E616F000E626F8F
:1009F000000E636FC1D7010E1C6E020E0F6E040E47
:100A00000E6EBA0EE82EFED70E2EFCD70F2EFAD79A
:100A100000D0100E026E65EC05F0800E026E310EF5
:100A2000E4EC06F0020E0F6E040E0E6EBA0EE82E07
:100A3000FED70E2EFCD70F2EFAD700D0160E026E60
:100A400065EC05F0000E026E310EE4EC06F0020ECD
:100A50000F6E040E0E6EBA0EE82EFED70E2EFCD7C9
:100A60000F2EFAD700D01050165C0E6E115017588A
:100A70000F6E0FBE06D00F5006E1640E0E5CD8B0AC
:100A800002D0000E1C6E1250185C0E6E13501958D6
:100A90000F6E0FAE06D09D0E0E5CFF0E0F58D8A045
:100AA00002D0000E1C6E14501A5C0E6E15501B58AE
:100AB0000F6E0FBE06D00F5006E1640E0E5CD8B06C
:100AC00002D0000E1C6E1C501200000E0B6E320E77
:100AD0000B6EC00E0B12000E0FEC07F00B5017EC54
:100AE00007F0000E0D6E000E0C6E0C50050FD96E47
:100AF000DA6A000E17EC07F0DF6E0C4A0D2A0DBE05
:100B0000F4D70D5004E1060E0C5CD8A0EED70550CA
:100B100006C003F0046A03C004F0036A0312000E67
:100B200004120250D96EDA6A03C0DEFF04C0DDFF92
:100B3000075008C003F0046A03C004F0036A0312FC
:100B4000000E04120250D96EDA6A020ED92603C0D2
:100B5000DEFF04C0DDFF09500AC003F0046A03C0D1
:100B600004F0036A0312000E04120250D96EDA6A0E
:100B7000040ED92603C0DEFF04C0DDFF010E0FEC1A
:100B800007F012005CA008D013C00BF011C00CF0ED
:100B900012C00DF060EC06F015BE05D014C019F0BF
:100BA00015C01AF004D0000E1A6E000E196E000E59
:100BB000186E000E176E0CD0000E036E200E026E23
:100BC00011C004F012C005F007EC06F0174A182A0D
:100BD0001950175C1850800A166E1A50800A165861
:100BE000D8A0EAD75CB008D013C00BF011C00CF04D
:100BF00012C00DF060EC06F013C001F0D3EC06F06B
:100C000019500124116E1A500220126E1200045065
:100C10000510D8B404D004500510D8A404D0025054
:100C2000ADEC06F0120020EE04F00450D926055079
:100C3000DA22DE50DE10D8B416D020EE04F00450D4
:100C4000D9260550DA2210EE02F00450E1260550B4
:100C5000E222DE50E65CE650800A0A6EDE50800A30
:100C60000A58D8B0120020EE02F00450D9260550E0
:100C7000DA22DE2A000EDD2212004DC04FF0000EF7
:100C80000001696F000E686F0FD04BC03FF04CC081
:100C900040F04F0E416E4EC042F063EC03F03F5007
:100CA00000016827405069234FC0F6FF0800F55047
:100CB0000009D8A4EAD768C04BF069C04CF0120014
:100CC000000E106E000E0F6E0BD00EC002F0036A05
:100CD0000CC004F00DC005F007EC06F00F4A102A16
:100CE0000B500F24D96EDA6ADF500E6E0E50D8B456
:100CF0001200EBD7C69A949E939C9388010E0FEC3A
:100D000007F0C650F00B0109C66EC688C79CC79E87
:100D1000C68A000E026E310EE4EC06F0080E026E7A
:100D20002D0EE4EC06F0120014BE05D0145010E1B4
:100D30001304D8B00DD013C015F014C016F0151E52
:100D4000161E154A162A15C013F016C014F012000C
:100D500013C013F014C014F01200016E0DD0ABA23A
:100D600004D0AC9AAC8AAB98AB88ABA404D0AECF1D
:100D70005EF0AC9AAC8A04009EA8F1D701C0ADFF2A
:100D8000120000EE60F02F0EEE6AE806FDE15E6AEA
:100D90005D6A5C6A5F905F92000EF86E030EF76EFC
:100DA000000190EF04F001C003F001D0012A0150CE
:100DB000D96EDA6ADF50D8A4F9D70350015C016E0E
:100DC000026A01BE02061200036E03503F0B046E5E
:100DD000000E0FEC07F0045017EC07F0025017EC70
:100DE00007F0010E0FEC07F01200510E5B6E000EC3
:100DF0004B6E000E4C6E50C04DF05B0E4E6E3DECD7
:100E000006F01200670EAF6EAC84AC98AB8EAB8868
:100E10009D989D9AAC9CAB9CAC9AAC8A1200016EDA
:100E20000150D8B402D0828C1200829C1200016E54
:0C0E300001C0C9FFC7A0FED7C9501200C6
:020000040020DA
:08000000FFFFFFFFFFFFFFFF00
:020000040030CA
:0E00000000291F1EFF8881FF03C003E003409C
:00000001FF
